{
  "contractName": "Escrow",
  "abi": [
    {
      "inputs": [
        {
          "internalType": "address",
          "name": "_arbitrator",
          "type": "address"
        }
      ],
      "stateMutability": "nonpayable",
      "type": "constructor"
    },
    {
      "inputs": [],
      "name": "arbitrator",
      "outputs": [
        {
          "internalType": "address",
          "name": "",
          "type": "address"
        }
      ],
      "stateMutability": "view",
      "type": "function",
      "constant": true
    },
    {
      "inputs": [
        {
          "internalType": "address",
          "name": "_user",
          "type": "address"
        },
        {
          "internalType": "address",
          "name": "_seller",
          "type": "address"
        }
      ],
      "name": "deposit",
      "outputs": [],
      "stateMutability": "payable",
      "type": "function",
      "payable": true
    },
    {
      "inputs": [
        {
          "internalType": "address",
          "name": "_user",
          "type": "address"
        },
        {
          "internalType": "address",
          "name": "_seller",
          "type": "address"
        }
      ],
      "name": "release",
      "outputs": [],
      "stateMutability": "payable",
      "type": "function",
      "payable": true
    },
    {
      "inputs": [
        {
          "internalType": "address",
          "name": "_user",
          "type": "address"
        },
        {
          "internalType": "address",
          "name": "_seller",
          "type": "address"
        }
      ],
      "name": "refundFunds",
      "outputs": [],
      "stateMutability": "payable",
      "type": "function",
      "payable": true
    },
    {
      "inputs": [
        {
          "internalType": "address",
          "name": "_user",
          "type": "address"
        },
        {
          "internalType": "address",
          "name": "_seller",
          "type": "address"
        },
        {
          "internalType": "bool",
          "name": "_isDone",
          "type": "bool"
        }
      ],
      "name": "releaseApproval",
      "outputs": [],
      "stateMutability": "nonpayable",
      "type": "function"
    }
  ],
  "bytecode": "0x60806040523480156200001157600080fd5b50604051620016ca380380620016ca8339818101604052810190620000379190620000e8565b806000806101000a81548173ffffffffffffffffffffffffffffffffffffffff021916908373ffffffffffffffffffffffffffffffffffffffff160217905550506200011a565b600080fd5b600073ffffffffffffffffffffffffffffffffffffffff82169050919050565b6000620000b08262000083565b9050919050565b620000c281620000a3565b8114620000ce57600080fd5b50565b600081519050620000e281620000b7565b92915050565b6000602082840312156200010157620001006200007e565b5b60006200011184828501620000d1565b91505092915050565b6115a0806200012a6000396000f3fe60806040526004361061004a5760003560e01c806308f06ac11461004f57806348b75044146100785780636cc6cde114610094578063b3c214b3146100bf578063f9609f08146100db575b600080fd5b34801561005b57600080fd5b5061007660048036038101906100719190610d3b565b6100f7565b005b610092600480360381019061008d9190610d8e565b6103b0565b005b3480156100a057600080fd5b506100a9610709565b6040516100b69190610ddd565b60405180910390f35b6100d960048036038101906100d49190610d8e565b61072d565b005b6100f560048036038101906100f09190610d8e565b610a87565b005b60008054906101000a900473ffffffffffffffffffffffffffffffffffffffff1673ffffffffffffffffffffffffffffffffffffffff163373ffffffffffffffffffffffffffffffffffffffff1614610185576040517f08c379a000000000000000000000000000000000000000000000000000000000815260040161017c90610e7b565b60405180910390fd5b600160008473ffffffffffffffffffffffffffffffffffffffff1673ffffffffffffffffffffffffffffffffffffffff16815260200190815260200160002060008373ffffffffffffffffffffffffffffffffffffffff1673ffffffffffffffffffffffffffffffffffffffff16815260200190815260200160002060000160009054906101000a900460ff1615610252576040517f08c379a000000000000000000000000000000000000000000000000000000000815260040161024990610f0d565b60405180910390fd5b6000600160008573ffffffffffffffffffffffffffffffffffffffff1673ffffffffffffffffffffffffffffffffffffffff16815260200190815260200160002060008473ffffffffffffffffffffffffffffffffffffffff1673ffffffffffffffffffffffffffffffffffffffff1681526020019081526020016000206001015411610314576040517f08c379a000000000000000000000000000000000000000000000000000000000815260040161030b90610f9f565b60405180910390fd5b80600160008573ffffffffffffffffffffffffffffffffffffffff1673ffffffffffffffffffffffffffffffffffffffff16815260200190815260200160002060008473ffffffffffffffffffffffffffffffffffffffff1673ffffffffffffffffffffffffffffffffffffffff16815260200190815260200160002060000160006101000a81548160ff021916908315150217905550505050565b600160008373ffffffffffffffffffffffffffffffffffffffff1673ffffffffffffffffffffffffffffffffffffffff16815260200190815260200160002060008273ffffffffffffffffffffffffffffffffffffffff1673ffffffffffffffffffffffffffffffffffffffff16815260200190815260200160002060000160009054906101000a900460ff1661047c576040517f08c379a000000000000000000000000000000000000000000000000000000000815260040161047390611031565b60405180910390fd5b6000600160008473ffffffffffffffffffffffffffffffffffffffff1673ffffffffffffffffffffffffffffffffffffffff16815260200190815260200160002060008373ffffffffffffffffffffffffffffffffffffffff1673ffffffffffffffffffffffffffffffffffffffff168152602001908152602001600020600101541161053e576040517f08c379a0000000000000000000000000000000000000000000000000000000008152600401610535906110c3565b60405180910390fd5b60008173ffffffffffffffffffffffffffffffffffffffff16600160008573ffffffffffffffffffffffffffffffffffffffff1673ffffffffffffffffffffffffffffffffffffffff16815260200190815260200160002060008473ffffffffffffffffffffffffffffffffffffffff1673ffffffffffffffffffffffffffffffffffffffff168152602001908152602001600020600101546040516105e390611114565b60006040518083038185875af1925050503d8060008114610620576040519150601f19603f3d011682016040523d82523d6000602084013e610625565b606091505b5050905080610669576040517f08c379a000000000000000000000000000000000000000000000000000000000815260040161066090611175565b60405180910390fd5b600160008473ffffffffffffffffffffffffffffffffffffffff1673ffffffffffffffffffffffffffffffffffffffff16815260200190815260200160002060008373ffffffffffffffffffffffffffffffffffffffff1673ffffffffffffffffffffffffffffffffffffffff168152602001908152602001600020600080820160006101000a81549060ff021916905560018201600090555050505050565b60008054906101000a900473ffffffffffffffffffffffffffffffffffffffff1681565b600160008373ffffffffffffffffffffffffffffffffffffffff1673ffffffffffffffffffffffffffffffffffffffff16815260200190815260200160002060008273ffffffffffffffffffffffffffffffffffffffff1673ffffffffffffffffffffffffffffffffffffffff16815260200190815260200160002060000160009054906101000a900460ff16156107fa576040517f08c379a00000000000000000000000000000000000000000000000000000000081526004016107f190611207565b60405180910390fd5b6000600160008473ffffffffffffffffffffffffffffffffffffffff1673ffffffffffffffffffffffffffffffffffffffff16815260200190815260200160002060008373ffffffffffffffffffffffffffffffffffffffff1673ffffffffffffffffffffffffffffffffffffffff16815260200190815260200160002060010154116108bc576040517f08c379a00000000000000000000000000000000000000000000000000000000081526004016108b390611299565b60405180910390fd5b60008273ffffffffffffffffffffffffffffffffffffffff16600160008573ffffffffffffffffffffffffffffffffffffffff1673ffffffffffffffffffffffffffffffffffffffff16815260200190815260200160002060008473ffffffffffffffffffffffffffffffffffffffff1673ffffffffffffffffffffffffffffffffffffffff1681526020019081526020016000206001015460405161096190611114565b60006040518083038185875af1925050503d806000811461099e576040519150601f19603f3d011682016040523d82523d6000602084013e6109a3565b606091505b50509050806109e7576040517f08c379a00000000000000000000000000000000000000000000000000000000081526004016109de90611305565b60405180910390fd5b600160008473ffffffffffffffffffffffffffffffffffffffff1673ffffffffffffffffffffffffffffffffffffffff16815260200190815260200160002060008373ffffffffffffffffffffffffffffffffffffffff1673ffffffffffffffffffffffffffffffffffffffff168152602001908152602001600020600080820160006101000a81549060ff021916905560018201600090555050505050565b600073ffffffffffffffffffffffffffffffffffffffff168173ffffffffffffffffffffffffffffffffffffffff1603610af6576040517f08c379a0000000000000000000000000000000000000000000000000000000008152600401610aed90611397565b60405180910390fd5b600160008373ffffffffffffffffffffffffffffffffffffffff1673ffffffffffffffffffffffffffffffffffffffff16815260200190815260200160002060008273ffffffffffffffffffffffffffffffffffffffff1673ffffffffffffffffffffffffffffffffffffffff16815260200190815260200160002060000160009054906101000a900460ff1615610bc3576040517f08c379a0000000000000000000000000000000000000000000000000000000008152600401610bba90611429565b60405180910390fd5b60003411610c06576040517f08c379a0000000000000000000000000000000000000000000000000000000008152600401610bfd906114bb565b60405180910390fd5b34600160008473ffffffffffffffffffffffffffffffffffffffff1673ffffffffffffffffffffffffffffffffffffffff16815260200190815260200160002060008373ffffffffffffffffffffffffffffffffffffffff1673ffffffffffffffffffffffffffffffffffffffff1681526020019081526020016000206001016000828254610c959190611514565b925050819055505050565b600080fd5b600073ffffffffffffffffffffffffffffffffffffffff82169050919050565b6000610cd082610ca5565b9050919050565b610ce081610cc5565b8114610ceb57600080fd5b50565b600081359050610cfd81610cd7565b92915050565b60008115159050919050565b610d1881610d03565b8114610d2357600080fd5b50565b600081359050610d3581610d0f565b92915050565b600080600060608486031215610d5457610d53610ca0565b5b6000610d6286828701610cee565b9350506020610d7386828701610cee565b9250506040610d8486828701610d26565b9150509250925092565b60008060408385031215610da557610da4610ca0565b5b6000610db385828601610cee565b9250506020610dc485828601610cee565b9150509250929050565b610dd781610cc5565b82525050565b6000602082019050610df26000830184610dce565b92915050565b600082825260208201905092915050565b7f457363726f7720436f6e74726163743a204f6e6c792061726269747261746f7260008201527f2063616e20617070726f7665207468652072656c656173650000000000000000602082015250565b6000610e65603883610df8565b9150610e7082610e09565b604082019050919050565b60006020820190508181036000830152610e9481610e58565b9050919050565b7f457363726f7720436f6e74726163743a2052656c6561736520697320616c726560008201527f61647920617070726f7665640000000000000000000000000000000000000000602082015250565b6000610ef7602c83610df8565b9150610f0282610e9b565b604082019050919050565b60006020820190508181036000830152610f2681610eea565b9050919050565b7f457363726f7720436f6e74726163743a20496e76616c696420616d6f756e742060008201527f666f722072656c6561736520617070726f76616c000000000000000000000000602082015250565b6000610f89603483610df8565b9150610f9482610f2d565b604082019050919050565b60006020820190508181036000830152610fb881610f7c565b9050919050565b7f457363726f7720436f6e74726163743a2052656c65617365206973206e6f742060008201527f617070726f766564000000000000000000000000000000000000000000000000602082015250565b600061101b602883610df8565b915061102682610fbf565b604082019050919050565b6000602082019050818103600083015261104a8161100e565b9050919050565b7f457363726f7720436f6e74726163743a20496e76616c696420616d6f756e742060008201527f746f2072656c6561736500000000000000000000000000000000000000000000602082015250565b60006110ad602a83610df8565b91506110b882611051565b604082019050919050565b600060208201905081810360008301526110dc816110a0565b9050919050565b600081905092915050565b50565b60006110fe6000836110e3565b9150611109826110ee565b600082019050919050565b600061111f826110f1565b9150819050919050565b7f457363726f7720436f6e74726163743a2052656c65617365206661696c656400600082015250565b600061115f601f83610df8565b915061116a82611129565b602082019050919050565b6000602082019050818103600083015261118e81611152565b9050919050565b7f457363726f7720436f6e74726163743a2052656c65617365206973206170707260008201527f6f7665642063616e6e6f7420726566756e640000000000000000000000000000602082015250565b60006111f1603283610df8565b91506111fc82611195565b604082019050919050565b60006020820190508181036000830152611220816111e4565b9050919050565b7f457363726f7720436f6e74726163743a20496e76616c696420616d6f756e742060008201527f746f20726566756e640000000000000000000000000000000000000000000000602082015250565b6000611283602983610df8565b915061128e82611227565b604082019050919050565b600060208201905081810360008301526112b281611276565b9050919050565b7f457363726f7720436f6e74726163743a20526566756e64206661696c65640000600082015250565b60006112ef601e83610df8565b91506112fa826112b9565b602082019050919050565b6000602082019050818103600083015261131e816112e2565b9050919050565b7f457363726f7720436f6e74726163743a2043616e6e6f74206265207a65726f2060008201527f6164647265737300000000000000000000000000000000000000000000000000602082015250565b6000611381602783610df8565b915061138c82611325565b604082019050919050565b600060208201905081810360008301526113b081611374565b9050919050565b7f457363726f7720436f6e74726163743a2052656c65617365206973206170707260008201527f6f7665642063616e6e6f74206164642066756e64730000000000000000000000602082015250565b6000611413603583610df8565b915061141e826113b7565b604082019050919050565b6000602082019050818103600083015261144281611406565b9050919050565b7f457363726f7720436f6e74726163743a20416d6f756e742063616e6e6f74206260008201527f65207a65726f0000000000000000000000000000000000000000000000000000602082015250565b60006114a5602683610df8565b91506114b082611449565b604082019050919050565b600060208201905081810360008301526114d481611498565b9050919050565b6000819050919050565b7f4e487b7100000000000000000000000000000000000000000000000000000000600052601160045260246000fd5b600061151f826114db565b915061152a836114db565b9250827fffffffffffffffffffffffffffffffffffffffffffffffffffffffffffffffff0382111561155f5761155e6114e5565b5b82820190509291505056fea2646970667358221220d971787285c5c0655e6b66344eab39d282742170a5df9037c1b370d7575e12c264736f6c634300080d0033",
  "immutableReferences": {},
  "source": "// SPDX-License-Identifier: MIT\n  \npragma solidity >=0.4.22 <0.9.0;\n\n  // holds funds from sender until certian conditions are met\n  // multi release process release on multiple approvals\n  // deposit, release, refund funds\n  // upgradable proxy contract\n\ncontract Escrow {\n\n  struct SellerInfo {\n    bool isReleaseApproved;\n    uint256 amount;\n  }\n\n  address public arbitrator; // address of the proxy contract\n\n  mapping (address => mapping (address => SellerInfo)) private sender;\n\n  constructor(address _arbitrator) {\n    arbitrator = _arbitrator;\n  }\n\n  function deposit(address _user,address _seller) external payable {\n    require(_seller != address(0), \"Escrow Contract: Cannot be zero address\");\n    require(!sender[_user][_seller].isReleaseApproved, \"Escrow Contract: Release is approved cannot add funds\");\n    require(msg.value > 0, \"Escrow Contract: Amount cannot be zero\");\n    sender[_user][_seller].amount += msg.value;\n  }\n  \n  function release(address _user, address _seller) external payable {\n    require(sender[_user][_seller].isReleaseApproved, \"Escrow Contract: Release is not approved\");\n    require(sender[_user][_seller].amount > 0, \"Escrow Contract: Invalid amount to release\");\n    (bool success, ) = payable(_seller).call{value: sender[_user][_seller].amount}(\"\");\n    require(success, \"Escrow Contract: Release failed\");\n    delete sender[_user][_seller];\n  }\n\n  function refundFunds(address _user, address _seller) external payable {\n    require(!sender[_user][_seller].isReleaseApproved, \"Escrow Contract: Release is approved cannot refund\");\n    require(sender[_user][_seller].amount > 0, \"Escrow Contract: Invalid amount to refund\");\n    (bool success, ) = payable(_user).call{value: sender[_user][_seller].amount}(\"\");\n    require(success, \"Escrow Contract: Refund failed\");\n    delete sender[_user][_seller];\n  }\n\n  function releaseApproval(address _user, address _seller, bool _isDone) public {\n    require(msg.sender == arbitrator, \"Escrow Contract: Only arbitrator can approve the release\");\n    require(!sender[_user][_seller].isReleaseApproved, \"Escrow Contract: Release is already approved\");\n    require(sender[_user][_seller].amount > 0, \"Escrow Contract: Invalid amount for release approval\");\n    sender[_user][_seller].isReleaseApproved = _isDone;\n  }\n\n}\n",
  "sourcePath": "D:\\coding\\interview assesment\\Escrow_Contract\\contracts\\Escrow.sol",
  "compiler": {
    "name": "solc",
    "version": "0.8.13+commit.abaa5c0e.Emscripten.clang"
  },
  "schemaVersion": "3.4.16",
  "updatedAt": "2024-07-17T09:03:37.991Z",
  "networkType": "ethereum",
  "devdoc": {
    "kind": "dev",
    "methods": {},
    "version": 1
  },
  "userdoc": {
    "kind": "user",
    "methods": {},
    "version": 1
  }
}